:020000040800F2
:1000000000200020210600086D0600086D0600088B
:1000100000000000000000000000000000000000E0
:100020000000000000000000000000006D06000855
:1000300000000000000000006D0600086D060008CA
:100040006D0600086D0600086D0600086D060008C4
:100050006D0600086D0600086D0600086D060008B4
:100060006D0600086D060008A90300086D0600086B
:100070006D0600086D0600086D0600086D06000894
:100080006D0600086D060008000000006D060008FF
:100090006D0600086D0600086D0600086D06000874
:1000A0006D0600086D0600086D0600086D06000864
:1000B0006D060008000000006D060008000000004A
:1000C0005FF808F180B588B000AF78600023FB616D
:1000D0000023BB6100237B6100233B610023FB60A5
:1000E000654B5A680C231340FB61FB69042B07D056
:1000F000082B09D0002B30D17B68604A1A6030E0B1
:100100007B685E4A1A602CE05B4B5A68F0239B03C5
:100110001340BB61584B5A6880235B0213407B61DC
:10012000BB699B0C0233BB617B69002B05D1BB69AA
:10013000534A5A437B681A6013E04F4BDA6A0F2325
:10014000134001333B614D48396901F0D5FF031C71
:10015000BA695A437B681A6003E07B68474A1A60B1
:10016000C046454B5A68F0231340FB61FB691B09ED
:10017000FB61444AFB69D3181B78DBB2FB607B68E8
:100180001A68FB68DA407B685A603B4B5A68E02388
:10019000DB001340FB61FB691B0AFB61394AFB6909
:1001A000D3181B78DBB2FB607B685A68FB68DA40C7
:1001B0007B689A60304B1A6B80235B00134003D13D
:1001C0007B68314ADA6010E02B4B5A688023DB01F0
:1001D000134005D17B689B685A087B68DA6004E0AD
:1001E0007B689B689A087B68DA60234B1A6B402314
:1001F000134003D17B68254A1A6103E07B688022A3
:1002000012021A611C4B1A6B1023134003D17B6836
:100210001A4A5A6103E07B681A687B685A61164B78
:100220001A6B0323134004D17B689A687B689A6138
:100230001EE0114B1A6B03231340012B04D17B6882
:100240001A687B689A6113E00B4B1A6B0323134007
:10025000022B04D17B68802212029A6108E0064BCF
:100260001A6B03231340032B02D17B68034A9A6164
:10027000BD4608B080BDC0460010024000127A00A2
:1002800000093D0000000020809FD5001280000082
:1002900080B582B000AF78600A1CFB1C1A70FB1C92
:1002A0001B78002B06D0084B074A51697A680A432D
:1002B0005A6106E0044B044A52697968C9430A400E
:1002C0005A61BD4602B080BD0010024080B582B0C8
:1002D00000AF78600A1CFB1C1A70FB1C1B78002BFB
:1002E00006D0084B074A91697A680A439A6106E08A
:1002F000044B044A92697968C9430A409A61BD4631
:1003000002B080BD0010024080B586B000AF7860BA
:100310001F4BFB607B683B6131E01E4B1B681A0E74
:100320001D4B1A601C4B1B681A1C4032FF231A40DD
:100330001A4B1A603A690123134008D0164B19680A
:100340003B1C1633164A49008A5A1A8007E0134BA1
:1003500019683B1C1633124A49008A5A1A80114BFD
:100360003A695200391C16310988D152094B1A6872
:10037000FB68D218074B1A603B6901333B617B680D
:100380001A1C20323B699A42C7D8BD4606B080BDD0
:100390000049D8159000002094000020980000200B
:1003A000E40000201000002080B500AF8023DB00B7
:1003B000181C00F0D3F9031C002B08D08023DB00AD
:1003C000181C00F0EBF90020FFF79EFF0FE08023E0
:1003D0009B00181C00F0C2F9031C002B07D08023DF
:1003E0009B00181C00F0DAF92020FFF78DFFBD46B6
:1003F00080BDC04600000000B0B582B000AF8023D1
:100400009B02181C0121FFF743FF01200121FFF788
:100410003FFF80235B01181C0121FFF757FF764B3C
:10042000F0221A60744B02221A71734B00229A71E7
:10043000714B0022DA71704B03225A719023DA0556
:100440006D4B101C191C00F0DBFA6C4B6C4A9A6067
:100450006A4B00229A81694B00229A80674B802266
:100460009200DA80654B802292001A80634B002252
:100470005A80644A614B101C191C00F09BF9614BB7
:10048000181C0221012200F097FA5F4B4022DA602B
:100490005D4B10229A605C4B00229A625B4A5A4B79
:1004A0005A60594B8022D200DA61574B80225A6140
:1004B000554B20221A62544B554A1A60524B8022E7
:1004C00052009A61504B00221A614F4B80229201D8
:1004D0005A62504A4C4B101C191C00F0C9F880237A
:1004E000DB00181C00F05AF980239B00181C00F058
:1004F00055F9484B181C0421012200F013F9454B13
:10050000181C0221012200F00DF9434B0A221A7037
:10051000414B00225A70404B01229A703E4B181CEE
:1005200000F0CCFBBB1D00221A803CE0BB1D1D88E7
:10053000BB1D1B88181C03F08FFC031C0C1C181C13
:10054000211C1A1C231C01F0C5FE031C0C1C181CCA
:10055000211C244B224A02F049FE031C0C1C181CCF
:10056000211C214A214B02F0D7F9031C0C1C181C3A
:10057000211C00F0F9FB031C0C1C181C211C1C4A3C
:100580001C4B02F033FE031C0C1C181C211C03F036
:10059000F1FB031C99B2214B6A00D152BB1D1A8892
:1005A000BB1D01321A80BB1D1B88181C03F016FCF2
:1005B000031C0C1C181C211C0B4A0C4B01F062FE86
:1005C000031C002BB2D1134B181C012100F08CF836
:1005D0000C4B181C012100F0CDF9FEE7C046C046C7
:1005E000182D4454FB210940000000000000704019
:1005F00000000000C0FFDF40CC000020D40000203D
:1006000080BB0000003001409C0000201000002052
:100610000C30014030000240C8000020E4000020FF
:100620000C488546002103E00B4B5B5843500431D6
:100630000A480B4B42189A42F6D30A4A02E00023BA
:1006400013600432084B9A42F9D300F075FAFFF7B1
:10065000D3FEFEE7002000205841000800000020E3
:100660001000002010000020E4020020FEE700003F
:1006700080B584B000AF786039600023FB607B6890
:100680001B68FB60FA68174B1340FB603B689A6875
:100690003B681B6A1A433B681B691A433B685B69EA
:1006A0001A433B689B691A433B68DB691A433B6802
:1006B0005B6A1A433B689B6A1343FA681343FB6007
:1006C0007B68FA681A603B68DA687B685A603B6846
:1006D0001A687B689A603B685A687B68DA60BD4636
:1006E00004B080BD0F80FFFF80B582B000AF78609E
:1006F0000A1CFB1C1A70FB1C1B78002B06D07B68A5
:100700001B6801221A437B681A6005E07B681A683F
:10071000034B1A407B681A60BD4602B080BDC046DC
:10072000FEFF000080B584B000AFF860B960FB1D2B
:100730001A70FB1D1B78002B06D0FB681A68BB687B
:100740001A43FB681A6006E0FB681B68BA68D2436C
:100750001A40FB681A60BD4604B080BD80B584B005
:1007600000AF78603B1C0F3300221A700A4B1B68E5
:100770007A68134004D03B1C0F3301221A7003E047
:100780003B1C0F3300221A703B1C0F331B78181CC4
:10079000BD4604B080BDC0460000024080B582B0B6
:1007A00000AF7860024B7A685A60BD4602B080BDE7
:1007B0000000024080B58EB000AF786039603B1C0D
:1007C0002A3300221A803B1C363302221A803B1C3B
:1007D000343300221A803B1C323301221A8000235A
:1007E000FB6200237B627B689B8B9AB2604B134059
:1007F0009AB27B689A837B6802221A843B1C2A3354
:100800007A68928B1A803B689B68022B08D13B1C4C
:10081000343300221A803B1C363302221A8066E0F1
:100820003B689B88002B04D13B1C323301221A8089
:1008300003E03B1C323302221A803B1C0833181C95
:10084000FFF740FC3B1C08331B687B623B68DA887F
:1008500080239B009A4212D17B6A1A0A131C9B00C8
:100860009B185B001A1C3B689B68101C191C01F04C
:1008700043FC031C9BB205339BB2FB6219E03B1C9B
:1008800032331B885B01786A191C01F035FC031CAC
:100890001A1C131C9B009B185B001A1C3B689B686E
:1008A000101C191C01F028FC031C9BB205339BB2E1
:1008B000FB62FB6A181C0A2101F01EFC031CFB6290
:1008C000FB6A99B23B1C343301220A401A803B1C5C
:1008D00034331B88FA6AD31A5A083B1C36331A8001
:1008E0003B1C34333A1C3432128812021A803B1CEF
:1008F00036331B88012B04D93B1C36331B88FF2B56
:1009000007D93B1C363302221A803B1C34330022A9
:100910001A803B68DA883B1C34331B8813439AB235
:100920003B1C36331B8813439AB27B681A843B689E
:100930001A883B6859883B6898883B689B890343C1
:100940009BB20B439BB213439AB23B1C2A331B88C6
:1009500013439AB23B1C2A33802109010A431A80AF
:100960007B683A1C2A3212889A83BD460EB080BD3D
:1009700040F0FFFF80B582B000AF78600A1CFB1C1E
:100980001A70FB1C1B78002B09D07B689B8B9BB2D9
:100990008022D20013439AB27B689A8307E07B6877
:1009A0009B8B9AB2034B13409AB27B689A83BD46E5
:1009B00002B080BDFFFBFFFF80B582B000AF786062
:1009C000BB1C19807B1C1A707B1C1B78002B09D068
:1009D0007B689B889AB2BB1C1B8813439AB27B68C6
:1009E0009A800AE07B689B889BB2BA1C1288D2432B
:1009F00092B213409AB27B689A80BD4602B080BD25
:100A000080B586B000AF7860396000237B61002339
:100A10003B610023FB6000237B6185E07B69012251
:100A2000101C9840031C3B613B681B683A691340EB
:100A3000FB60FA683B699A4273D13B681B79012BD2
:100A400003D03B681B79022B38D17B689B687A699D
:100A500052000321081C9040021CD2431A407B68BC
:100A60009A607B689A683B685B79191C7B695B00BC
:100A7000081C9840031C1A437B689A607B689B881B
:100A80009BB27A6992B20121081C9040021C92B27A
:100A9000D24392B213409AB27B689A807B689B885B
:100AA0009AB23B689B79191C7B699BB2081C9840E1
:100AB000031C9BB213439AB27B689A807B681B68C5
:100AC0007A6952000321081C9040021CD2431A404C
:100AD0007B681A607B681A683B681B79191C7B6904
:100AE0005B00081C9840031C1A437B681A607B68F3
:100AF000DB687A6992B252000321081C9040021C04
:100B0000D2431A407B68DA607B68DA683B68DB793D
:100B1000191C7B695B00081C9840031C1A437B6806
:100B2000DA607B6901337B617B690F2B00D875E745
:100B3000BD4606B080BDC04680B500AF1B4B1B4A0A
:100B4000126801210A431A60184B184A5168184A62
:100B50000A405A60154B154A1168164A0A401A6035
:100B6000124B124A1168144A0A401A600F4B0F4A7E
:100B70005168124A0A405A600C4B0C4AD26A0F2143
:100B80008A43DA62094B094A116B0D4A0A401A631B
:100B9000064B064A526B01218A435A63034B0022DB
:100BA0009A6000F00FF8BD4680BDC04600100240BC
:100BB0000CB8FFF8FFFFF6FEFFFFFBFFFFFFC0FFD3
:100BC000ACFEFFFF80B582B000AF00237B60002346
:100BD0003B60374B364A1268802149020A431A604B
:100BE000334B1A6880239B0213403B607B680133C0
:100BF0007B603B68002B04D17A68A023DB019A421A
:100C0000EED12B4B1A6880239B02134002D00123A4
:100C10003B6001E000233B603B68012B44D1254B46
:100C200011221A60224B224A52685A60204B204AF5
:100C300052685A601E4B1E4A51681F4A0A405A6049
:100C40001B4B1B4A5268A42189030A435A60184B64
:100C5000174AD26A0F218A43DA62154B144AD26AC4
:100C600001210A43DA62124B114A126880214904B9
:100C70000A431A60C0460E4B1A6880239B04134037
:100C8000F9D00B4B0A4A526803218A435A60084B39
:100C9000074A526802210A435A60C046044B5A6808
:100CA0000C231340082BF9D1BD4602B080BDC046CD
:100CB0000010024000200240FFFFC0FF80B584B05A
:100CC00000AF78600023FB607B689B78002B3CD0F2
:100CD000244B7A6812789208D2B2C0329200D3586C
:100CE000FB607B681B781A1C03231340DB00FF2288
:100CF000101C9840031CDA43FB681340FB607B68C0
:100D00005B789A01FF231A407B681B78191C032328
:100D10000B40DB00111C99400B1CFA681343FB606D
:100D2000104B7A6812789208D2B2C0329200F968F9
:100D3000D1500C4B7A681278111C1F220A400121F5
:100D4000081C9040021C1A6009E0064A7B681B7868
:100D5000191C1F230B40012199408023D150BD460F
:100D600004B080BD00E100E010B5021C28480B1C57
:100D7000490086B0490881421FDD2648814205DDD1
:100D8000101C191C02F0C2FC06B010BD101C191C6E
:100D900002AA00F041F803231840012822D00228BB
:100DA00014D0002825D0049A059B0298039900F0DE
:100DB0006FFA80231B06C918E6E700210091101C7A
:100DC000191C124B104A00F09FFFDDE70124049A22
:100DD000059B02980399009400F096FF80231B0660
:100DE000C918D1E7049A059B0298039900F050FABC
:100DF000CAE7012402980399049A059B009400F025
:100E000083FFC1E7C046C0460000000000000000AC
:100E1000FB21E93FFFFFEF7FF0B556464D464446C4
:100E20005F46F0B44B005E08A34B91B0041C0D1C50
:100E300091468A469E4200DC86E0A04B9E4223DC1F
:100E4000002900DCCEE1291C8C4B8B4A02F05EFCB1
:100E50009B4B041C0D1C9E4200D18FE0884A894B9D
:100E600002F054FC021C0B1C49460A604B60201C1B
:100E7000291C02F04BFC824A824B02F047FC4A4696
:100E80009060D160012067E08E4B9E4200DC91E0D3
:100E90008D4B9E4267DC8D493315C9180B05F51A39
:100EA0008B46291C041C02F065FF02F097FF021C10
:100EB0000B1C201C291C0A920B9302F027FC724A7F
:100EC000724B02F093F90F1C061C02F053FF02F064
:100ED00085FF041C0D1C221C2B1C301C391C0C947F
:100EE0000D9502F013FC684A684B02F07FF9684ADE
:100EF000684B0E900F9101F0BFF9002800D192E1EC
:100F0000634A644B201C291C01F0B6F9431E98412A
:100F100002231B1A022200926D4A0AA80192494636
:100F20005A4600F0D9FA5246002A15DA4C4664684F
:100F30008021090663184946CA68802424064B604C
:100F40001319CB60404207E0111C14605560504AF1
:100F5000504B8A60CB60002011B03CBC9046994653
:100F6000A246AB46F0BD221C2B1C02F0CFFB4A462A
:100F70009060D160106051600020EDE7464A474B19
:100F800002F0C4FB464A474B041C0D1C02F0BEFB9A
:100F9000021C0B1C49460A604B60201C291C02F0F5
:100FA000B5FB3F4A3F4B02F0B1FB4A469060D1602F
:100FB0000120D1E700F054FF3B4A3C4B041C0D1CC0
:100FC00002F014F93A4A3B4B01F084F902F0D2FEE8
:100FD000834602F003FF294B274A0490059102F053
:100FE00005F9021C0B1C201C291C02F08FFB244A53
:100FF000244B029003910498059902F0F7F85B46A0
:1010000006900791029803991F2B65DC5A46013A16
:10101000304B9200D358B3425ED0069A079B02F041
:1010200075FB0D1C0F1C041C49460C604D6080466E
:1010300042463B1C0298039902F068FB069A079B04
:1010400002F064FB4A46041C0D1C9460D5605446B3
:10105000031C5846002C00DB7EE7444614608022C7
:1010600012064C46BF1889186760A360E1604042D1
:1010700072E7C046C046C04600004054FB21F93F1D
:101080003163621A61B4D03D00000000000070417D
:1010900000000000000000000000601A61B4D03DB4
:1010A0007370032E8A19A33B83C8C96D305FE43F78
:1010B000000000000000E03FFB21E93F7BD9024037
:1010C000FB21F93FFB213941FFFFEF7FEAFBFFFFE7
:1010D0007C3F0008FC3E0008069A079B02F016FBC6
:1010E0004B00041C0D1C4A4636155B0D80460F1C38
:1010F00014605560F31A102B9ADD584B564A049829
:10110000059902F073F8041C0D1C221C2B1C02987C
:10111000039902F0FBFA08900991089A099B02983A
:10112000039902F0F3FA221C2B1C02F0EFFA4C4A4E
:101130004C4B041C0D1C0498059902F057F8221C16
:101140002B1C02F0E3FA06900791069A079B089879
:10115000099902F0DBFA4B460D1C041C1C605D6013
:101160004B005B0D0F1C80460899099AF31A0291F7
:101170000392312B00DC5BE73B4A3C4B049805991A
:1011800002F034F8041C0D1C221C2B1C029803993D
:1011900002F0BCFA02900391029A039B0898099905
:1011A00002F0B4FA221C2B1C02F0B0FA304A314B88
:1011B000041C0D1C0498059902F018F8221C2B1C25
:1011C00002F0A4FA06900791069A079B02980399E9
:1011D00002F09CFA4A46041C0D1C80460F1C146049
:1011E000556025E7291C244A244B01F073F8264B4F
:1011F000041C0D1C9E4218D0214A224B01F06AF8B3
:10120000021C0B1C49460A604B60201C291C02F082
:101210007DFA1B4A1B4B01F05DF84A469060D16095
:101220000120404298E6032374E60C4B0A4A01F081
:1012300051F80B4A0B4B041C0D1C01F04BF8021C1F
:101240000B1C49460A604B60201C291C02F05EFA08
:10125000034A044BDFE7C0460000601A61B4D03D8A
:101260007370032E8A19A33B0000002E8A19A33B3A
:10127000C14920259A837B3900004054FB21F93F66
:101280003163621A61B4D03DFB21F93FC046C046CC
:10129000F0B5474680B488B0029203934B005B08D8
:1012A0009846894B061C0F1C984563DC02F062FDD2
:1012B000002800D1DDE0321C3B1C301C391C01F041
:1012C00095FF6E4B6C4A041C0D1C01F08FFF6C4A9D
:1012D0006C4B00F0FFFF221C2B1C01F087FF6A4AB9
:1012E0006A4B02F013FA221C2B1C01F07FFF684AA4
:1012F000684B00F0EFFF221C2B1C01F077FF664AC1
:10130000664B02F003FA221C2B1C01F06FFF644AAB
:10131000644B00F0DFFF221C2B1C01F067FF0490E0
:101320000591614A614B201C291C01F05FFF049A62
:10133000059B00900191201C291C01F057FF029A87
:10134000039B041C0D1C301C391C01F04FFF021CB8
:101350000B1C201C291C02F0D9F9021C0B1C009844
:10136000019902F0D3F9021C0B1C5148514902F0BB
:10137000CDF971E0321C3B1C01F038FF3F4B3E4A77
:10138000041C0D1C01F032FF3D4A3E4B00F0A2FF51
:10139000221C2B1C01F02AFF3B4A3C4B02F0B6F901
:1013A000221C2B1C01F022FF394A3A4B00F092FF1D
:1013B000221C2B1C01F01AFF374A384B02F0A6F909
:1013C000221C2B1C01F012FF354A364B00F082FF25
:1013D0002B1C221C01F00AFF3C4B04900591984500
:1013E0009FDD3B4B98453BDC3A4900220B1C4344B4
:1013F0002F4830490092019302F088F90690079136
:10140000294A2A4B201C291C01F0F0FE009A019B5E
:1014100002F07CF9049A059B00900191201C291C84
:1014200001F0E4FE029A039B041C0D1C301C391CC5
:1014300001F0DCFE021C0B1C201C291C02F066F9CA
:10144000021C0B1C0098019902F060F9021C0B1C95
:101450000698079902F05AF908B004BC9046F0BD0E
:10146000154A164B069207931549164A00910192A8
:10147000C6E70F480F49EFE7D43888BEE9FAA8BDA0
:10148000C4B1B4BD9EEE213EAD529C804F7E923ED3
:101490009015CB19A001FA3E7751C1166CC1563F89
:1014A0004C5555555555A53F000000000000E03F44
:1014B000000000000000F03F000000000000E73FD7
:1014C000000000000000D23FFFFF3F3E3233D33F19
:1014D0000000E93F0000E0FFF0B556464D464446A7
:1014E0005F46F0B48E4C8246A544A89D10938D4B68
:1014F000141CAA00109DD2580E91013DE01E182127
:101500000C92069500F046FEC343DB171840C34318
:101510005A00D318DB001B190F90441B0C980B9337
:101520002F1817D4A998A500E71926AE4519013739
:1015300007E0286802F052FC013403C60435BC42BF
:1015400008D0002CF5DA01346C496B48043503C629
:10155000BC42F6D10C9C002C00DAADE30C9B109C35
:101560000133DB00E4009EADA34699462B1C5B448F
:10157000E93B002076ACFF3B80460D940493069D2A
:10158000002D00DAACE104980026071C47445B4DAF
:10159000594C50468319186859683A687B6801F0BD
:1015A00025FE021C0B1C201C291C00F093FE083693
:1015B000041C0D1C083F5E45EBD10D9908220B1C45
:1015C000434490441C605D60C845D8D10C9D11AC6B
:1015D000AB000894E41811940A950A9C0D9DE30051
:1015E000EB181E685F68002C38DD231C013BDB0014
:1015F000ED1812A8A300A846C418554681460495C4
:10160000A2463F4A3F4B301C391C01F0EFFD02F06F
:10161000B1FB02F0E3FB3C4A3C4B041C0D1C01F007
:10162000E5FD021C0B1C301C391C02F06FF802F0A7
:10163000A1FB494604318946043901C1201C4446B6
:10164000291C2268636800F045FE08256D42061CCF
:101650000F1CA844D145D4D104988246301C391CB3
:101660000B9A00F0B9FC2A4A2A4B041C0D1C01F00D
:10167000BDFD00F0F9FB284A284B01F0B7FD021C24
:101680000B1C201C291C02F041F8041C0D1C02F04C
:1016900071FB814602F0A2FB021C0B1C201C291CC2
:1016A00002F034F80B9C061C0F1C002C00DCF9E047
:1016B0000A9A12AD013A9200AB581821091B181C66
:1016C0000841814488401B1AAB5017252D1B2B4124
:1016D0000993099D002D50DD0A9C0125A944002C89
:1016E00000DC08E1A10012AB8022591800240E484A
:1016F000550423E0C046C046000000000000000082
:10170000000000000000703E00000000000070417A
:10171000000000000000C03F00000000000020406A
:1017200084FDFFFF84400008FFFFFF00002A02D075
:10173000AA1A1A60012404338B4208D01A68002CBC
:10174000F4D0821A1A60043301248B42F6D10B9D27
:10175000002D0EDD012D00D1AFE0022D09D10A9B35
:1017600012AA013B9B00D25812AD02929202920A39
:10177000EA50099D022D00D17BE0301C391CCB4B77
:10178000C94A00F079FD002800D1B6E00A980C9C07
:10179000013884420CDC810012AD119C6B180022D0
:1017A0001D68043B2A43A342FAD1002A00D067E215
:1017B0000C9B12A8013B9B00C358002B00D079E280
:1017C0000C9B0122023B9B00C318043B5968013269
:1017D0000029FAD00A9B0A9C0133A4180A94A34258
:1017E00000DDFAE60F9DA99C5A199200A418069DE7
:1017F000A1460D9CEA18DB00E318109D0A9C049397
:101800002B19D20026A8DB0026AD80185D19804672
:1018100009954946086802F0E1FA069C42461060C4
:101820005160002C22DB47460026A04D9E4C5046BE
:101830008319186859683A687B6801F0D7FC021C64
:101840000B1C201C291C00F045FD0836041C0D1C37
:10185000083F5E45EBD10499082330C1099C04225E
:10186000984404919144A045D3D1B6E68F4D8E4C57
:10187000F1E7321C3B1C8E488E4901F047FF061CE5
:101880000F1C002C00D178E70B9A8948894900F099
:10189000A3FB021C0B1C301C391C01F037FF061C7B
:1018A0000F1C6AE70B9C002C11D10A9B12A8013B6C
:1018B0009B00C558ED1509950BE70A9B12A8013B43
:1018C0009B00C05812A94202520ACA5051E77A4AF4
:1018D0007A4B00F0F5FC002805D1002409944CE770
:1018E000724D714C69E6022409940A9C0125A944B1
:1018F000002C00DDF6E6002429E70B9D4C466A42E9
:10190000301C391C0F9400F067FB6D4A6D4B041CB2
:101910000D1C00F0D5FC002800D1D3E16A4A6B4BC6
:10192000201C291C01F062FC02F024FA061C0A9813
:101930008700301C02F052FA614A624B01F056FCFB
:10194000021C0B1C201C291C01F0E0FE02F012FA04
:101950000A9A0B9C904601229044454612A91834DD
:10196000AB00C8510B94CE50514852490B9A00F02D
:1019700033FB4346041C0D1C002B5CDB0D999E00C1
:10198000DB0012A89B460F1C86195F44306802F0EA
:1019900025FA221C2B1C01F029FC4B4A4B4B3860CA
:1019A0007960201C291C01F021FC089A043E041CCB
:1019B0000D1C083F9642E9D10D9B45461C1C5C441A
:1019C0000C9A0494013500204EA94446069583469E
:1019D000894692460A945046002860DB3C49049FA1
:1019E0008846324D304C002604E0082398440837DE
:1019F0005E4511DC4246106851683A687B6801F028
:101A0000F5FB021C0B1C201C291C00F063FC01369A
:101A1000041C0D1CB245E8DA5846C3004B441C6058
:101A20005D60049C0121069D083C8B440494AB45F9
:101A3000D1D10A9A9046A89C022C4BDC002C00DDE8
:101A4000DFE020D14346002B00DA5AE1DC004EAD46
:101A50002C194CAE00250023281C191C2268636831
:101A600000F038FC083C051C0B1CB442F4D1099C66
:101A7000191C002C02D08020000619180E9C2A1C6C
:101A80000B1C226063600F9C072020409F239B005B
:101A90009D443CBC90469946A246AB46F0BD034DE2
:101AA000014CB9E7C046C04600000000000000003D
:101AB000000000000000F03F000000000000E03FD8
:101AC0000000000000007041000000000000703EB7
:101AD00098400008A89D032DD5D14046002800DC81
:101AE0000AE140464EADC00083462B1C5B441E6895
:101AF0005F684346013BA946DB004B444CAC049372
:101B00000A949A4601E0261C2F1C55462C686D68E5
:101B1000321C201C291C3B1C0694079500F0DAFBA4
:101B2000041C0D1C221C2B1C0698079901F0EEFDCD
:101B3000321C3B1C00F0CEFB52469060D160082066
:101B400040420A998244146055608A45DBD142467E
:101B500000270026012A3ADD4B46049D5B441E689F
:101B60005F68A84601E0261C2F1C45462C686D685E
:101B7000321C201C291C3B1C0494059500F0AAFB78
:101B8000041C0D1C221C2B1C0498059901F0BEFDA1
:101B9000321C3B1C00F09EFB42469060D160082046
:101BA0004042804414605560C145DCD14C464D46EE
:101BB0005C44083500270026381C311C2268636805
:101BC00000F088FB083C071C0E1CAC42F4D1099CB9
:101BD000002C00D181E00E9C4E984D4620606D682F
:101BE000802000062B18494663604846CB68802257
:101BF000120680689B18B618A060E36027616661D2
:101C000041E7424600250024002A10DBD3004EA8FD
:101C1000C6184CAF00250024281C211C32687368AC
:101C200000F058FB083E051C0C1CBE42F4D1099A7A
:101C3000211C002A02D080231B06E1180E980B1CE1
:101C40002A1C026043604E984F992A1C231C01F005
:101C50005DFD4246002A07DD50ACD50065190CCC6D
:101C600000F038FBAC42FAD1099C002C02D0802550
:101C70002D0649190E9C021C0B1CA260E36002E7B2
:101C80000B9D804612A843584C46183D0F940B9567
:101C9000002B00D068E64246013A9300C318291C85
:101CA00000E0013A043B5D681839002DF9D09046F8
:101CB0000B9159E601228DE5109D76ACED00AB4607
:101CC0000D9483E40A98291C8600201C02F052F827
:101CD0000A9A12A98851904646E60E9C4E984F9952
:101CE0003A1C20606160331C49468868C9682261DB
:101CF0006361A060E160C6E64EA900270026894620
:101D000065E700250023B2E6F0B589B0049205939B
:101D1000514B4A00061C0F1C52089A4206DC02F086
:101D200029F8391C031C301C002B64D0321C3B1CCE
:101D3000301C391C01F05AFA321C3B1C041C0D1CCF
:101D400001F054FA374B364A02900391201C291CAB
:101D500001F04CFA344A354B01F0D8FC221C2B1C04
:101D600001F044FA324A334B00F0B4FA221C2B1C27
:101D700001F03CFA304A314B01F0C8FC221C2B1C0C
:101D800001F034FA2E4A2F4B00F0A4FA0E9B069075
:101D90000791002B31D02C4A2C4B0498059901F067
:101DA00025FA069A079B009001910298039901F089
:101DB0001DFA021C0B1C0098019901F0A7FC221CC3
:101DC0002B1C01F013FA049A059B01F09FFC204A9A
:101DD000204B041C0D1C0298039901F007FA021C09
:101DE0000B1C201C291C00F075FA021C0B1C301C5B
:101DF000391C01F08BFC09B0F0BD069A079B201C32
:101E0000291C01F0F3F9124A124B01F07FFC029AEF
:101E1000039B01F0EBF9321C3B1C00F05BFAEAE794
:101E20007CD5CF5A3AD9E53DEB9C2B8AE6E55A3E64
:101E30007DFEB157E31DC73ED561C119A0012A3F00
:101E4000A6F810111111813F000000000000E03FD2
:101E5000495555555555C53FFFFF3F3EC046C04605
:101E60004B0059087047C046F0B556464D464446AB
:101E70005F46F0B4524A4F007F0D83B0BE18041C79
:101E80000D1C89468A4680460197132E2ADC002EB7
:101E900056DB4C4F021C37413B1C0B4003439C4616
:101EA000BB4667460B1C002F13D0424B404A00F044
:101EB00011FA414A414B00F0F9F9002807D0002DF2
:101EC0004EDB53465F46BB430022994690464B4645
:101ED0004246101C191C03B03CBC90469946A246D1
:101EE000AB46F0BD332E0BDD0B1C8021021CC9005C
:101EF0008E42EED1291C00F0EDF9021C0B1CE8E724
:101F0000019F314ABB1801225242DA4093465F4694
:101F1000021C0B1C0742DCD0264B254A00F0DAF9E4
:101F2000254A264B00F0C2F90028D0D0002D1DDB39
:101F300042465B469A439046D1464B464246C8E7E6
:101F40001C4B1B4A00F0C6F91B4A1C4B00F0AEF9B3
:101F50000028BCD0002D17DB0027B846B946B6E7ED
:101F600080235B0333415E19B246AAE7142E19D0D1
:101F7000164B019A9F1A0123BB401B199C420FD993
:101F80006F1CBA469846D3E76B005B081C4302D12E
:101F90000027B8469BE70E4F00239846B94696E7C0
:101FA0009846C5E76B1C9A46C2E7C046C046C04685
:101FB0009C7500883CE4377E0000000000000000B3
:101FC00001FCFFFFFFFF0F00EDFBFFFF33040000EC
:101FD0000000F0BFC046C046F8B53D4E171C331C8C
:101FE0000B40041C0D1C0A1C1B1525D14B005B0863
:101FF00018431ED0201C291C2E4B2D4A01F0F6F848
:10200000344B041C0D1C9F4231DB0E4033150A1C5F
:10201000363B3149DB198B4215DD221C2B1C26482F
:10202000264900F061F8244A244B01F0DFF8041C33
:102030000D1C291C201CF8BD28498B421ED02649A6
:10204000DB198B42E9DC002B05DD25491B050A4025
:102050001D1C1543EDE7191C353118DA214B9F4241
:10206000DBDC17481749221C2B1C00F03DF8144AF2
:10207000144B01F0BBF8041C0D1CDAE7201C291CD2
:10208000221C2B1C00F026F9041C0D1CD1E714495E
:1020900036331B050A401D1C1543201C291C0A4A07
:1020A0000A4B01F0A3F8041C0D1CC2E7C046C04651
:1020B00000000000000050439C7500883CE4377E1F
:1020C00059F3F8C21F6EA501000000000000903C0B
:1020D0000000F07FB03CFFFFFE070000FF0700009C
:1020E000FFFF0F8050C3000030B5DA0FD2074B005E
:1020F0005B08111C194330BD002934D00123002294
:1021000010B488422CD301242407A14204D2814276
:1021100002D209011B01F8E7E400A14204D2814286
:1021200002D249005B00F8E7884201D3401A1A4303
:102130004C08A04202D3001B5C0822438C08A0423A
:1021400002D3001B9C082243CC08A04202D3001BF0
:10215000DC082243002803D01B0901D00909E3E76A
:10216000101C10BC7047002801D00020C04307B4E9
:10217000024802A14018029003BDC046D9000000E9
:102180000029F0D003B5FFF7B9FF0EBC4243891A0E
:102190001847C046002941D010B4041C4C40A44646
:1021A00001230022002900D54942002800D54042E1
:1021B00088422CD301242407A14204D2814202D2B6
:1021C00009011B01F8E7E400A14204D2814202D2D6
:1021D00049005B00F8E7884201D3401A1A434C08D3
:1021E000A04202D3001B5C0822438C08A04202D309
:1021F000001B9C082243CC08A04202D3001BDC0831
:102200002243002803D01B0901D00909E3E7101C71
:102210006446002C00D5404210BC7047002806D010
:1022200003DB0020C043400801E08020000607B423
:10223000024802A14018029003BDC04619000000E8
:102240000029EBD003B5FFF7A7FF0EBC4243891A64
:102250001847C0467047C0468446101C62468C46EC
:10226000191C634600E0C0461FB500F041FF00287E
:1022700001D40021C8421FBD10B500F071FE4042DC
:10228000013010BD10B500F033FF002801DB002045
:1022900010BD012010BDC04610B500F029FF002878
:1022A00001DD002010BD012010BDC04610B500F0BA
:1022B000A1FE002801DC002010BD012010BDC04699
:1022C00010B500F097FE002801DA002010BD0120B3
:1022D00010BDC046F8B55F46564644464D46F0B47C
:1022E0000C034D00CE0F610A440F2143C4001803B4
:1022F00080465800400D8246D80F84464046400A2A
:10230000530F0343D0006D0D371C8346524666457C
:1023100000D1A4E0AF1A002F00DC09E1002A3BD174
:10232000184300D0EAE0630700D187E00F23234081
:10233000042B00D182E0221DA242A44164428023EA
:1023400009191B040B40371C141C002B00D17CE026
:10235000CE4B01359D4200D105E1CD4BE40819403B
:102360004807490204430B0B002000211B031A0BF2
:102370000B0D6D051B0513436A08C64DFF071D4075
:1023800015436D006D08291C3943201C3CBC904648
:102390009946A246AB46F8BDBC488542C3D08020D2
:1023A00000040343382F00DDF0E01F2F00DD24E19F
:1023B0002020C01B1A1C814682405846F840024328
:1023C000944658464A469040421E9041FB40624621
:1023D00002431F1CA21A9442A4416442C91B091B58
:1023E000141C0B029FD549024F0A002F00D1C8E0F0
:1023F000381C01F065FD021C083A1F2A00DDB5E01B
:102400002821091A201C9740C84007439440954250
:1024100000DDB2E0551B691C1F2900DDDCE01F2236
:10242000551B3B1C221CAB40CA40AC40651EAC4156
:102430001343CF401C43391C002574E780231B0441
:102440000B40371C002B00D082E7904B4807E40874
:102450000443C9089D4248D009030B0B84E7AA1A1C
:102460009446002A00DC98E05046002852D0874865
:10247000854200D157E78020000403436246382A92
:1024800000DDFCE01F2A00DD4AE120226046101A30
:102490001A1C82408246914658466246D0404A46BF
:1024A00002439046584652469040421E9041424652
:1024B00002436046C3401219A242A4416442591823
:1024C0000919141C080200D42DE7704B01359D42F8
:1024D00000D122E16E4B60081940012323401C1CEF
:1024E0000443CB071C4349081DE7231C0B433AD088
:1024F00080231B030B431B031B0B35E7013F002FFE
:1025000065D15846221A9442A4416442C91A091B53
:10251000141C66E75846184300D104E701225242D2
:1025200094446046002800D0C5E058460219C3E72D
:10253000002F73D1681C4005400D012800DCDEE04F
:102540005A46A21A9442BF41C81A7F42C71B38029A
:1025500000D489E05A46141BA3459241591A5242AD
:102560008F1A664641E700230024FDE6271C283821
:1025700087400024954200DC4CE74549AD1A3940BC
:10258000D1E6201C01F09CFC203034E75A461A4367
:10259000531E9A41D2B200271CE7002A00D0DCE08B
:1025A000681C4205520D012A00DC8DE0374DA8421F
:1025B00000D1F3E05D462A19A242A44164425918B1
:1025C0000919CC07520814434908051CABE62F48EB
:1025D000854200D0E6E6A6E62B1C1F3B3A1CDA40FB
:1025E000131C20296CD03F22551BAF403C43601E7A
:1025F00084411C430021002595E6381C20381A1C14
:10260000C240101C202F5DD04022D71BBB405A4631
:102610001A43531E9A4102430027DBE6002D3BD0AC
:102620001A4DAA4500D193E080252D047F4229430D
:10263000382F00DDACE01F2F00DD29E12025ED1B48
:10264000081C261CA840FE40AC400643651EAC4159
:102650003443F9405D462C1BA34592415B1A52421C
:10266000991A55466646BCE6131C3B43141C002BC6
:1026700000D0BAE60027002100250024E5E65A46EE
:102680001A43531E9A41D2B2002314E7FF070000F9
:10269000FFFF7FFFFFFF0F800D1C254358D0FF4336
:1026A000002F51D1041BA3459241591A5242891A55
:1026B0005546664695E69648854200D0DEE632E607
:1026C000002793E70023A2E7081C2043002D00D039
:1026D000C4E0002800D1F7E05846184300D122E6B4
:1026E00058460219A242A441644259180919141CFF
:1026F0000A0200D417E6874B0125194013E6081C8F
:102700002043002D39D1002871D15946194303D0F7
:10271000191C5C46664606E600270021002494E664
:10272000604620381A1CC24060469146202800D1DD
:10273000ACE04022121A93405A461A43531E9A4163
:102740004B461A430023B6E6714DAA4500D06FE709
:10275000191C5C4655466646E5E5002D22D10D1C48
:10276000254377D0D543002D71D15C445C4592411F
:102770005918524289185546A4E600284DD15946A9
:10278000194300D194E0191C5C466646604DCAE5C9
:102790000C43611E8C41E4B200215BE7051C002163
:1027A000002452E65A4DAA4554D0554280221004C6
:1027B0000143382D00DD81E01F2D00DD92E0202255
:1027C000501B0A1C84468240201CE840024390466D
:1027D00062469440601E844142461443E9405C4492
:1027E0005C459241CB185242991855466AE65846C4
:1027F000184300D197E55846271ABC429241C81A9F
:102800005242801A020266D55846041BA3459241E3
:10281000591A5242891A664685E55846184333D0FC
:102820004807E40804438020C9080003014208D097
:10283000DD08054205D15946CA085C071443291C26
:102840006646630FC9001943E400314D6BE5304A19
:102850009245AED1191C5C46554664E5002836D039
:102860005846184310D080254807E408C9082D03AE
:1028700004432942E5D0D8082842E2D15D46EA085F
:102880005C071443011CDCE7214D4CE5002353E7B2
:102890003D1C203D0A1CEA40151C202F34D0402648
:1028A000F71BB9400C43611E8C412C430021D1E63B
:1028B00080210027C903164D0024C6E50C43611E84
:1028C0008C41E4B200218AE7191C5C462BE5191CF7
:1028D0005C460F4D27E5031C3B4300D11CE7011C60
:1028E0003C1C20E52020404240190A1CC240904672
:1028F000202D0BD04020451BA9400C43611E8C416C
:1029000045462C4300216AE70021CBE70021F4E78C
:10291000FF070000FFFF7FFFF0B5564644465F46C5
:102920004D46F0B41F1C0B031B0B98464B0087B0A1
:10293000041C81465B0DC80F161C9A460090002BA4
:1029400051D06A4B9A4531D08022414652030A4306
:10295000630FD2001A43664B90460025E200914671
:102960009A44002402953B031B0B9B46FD0F7B0002
:10297000311C5B0D019560D05C4A934254D080219C
:10298000584649030143720FC9001143584A8B4608
:102990009B18F1000020009A04436A4003920F2C18
:1029A00000D9ADE0534EA4003459A7464046044335
:1029B0006ED1002102250824884689460295D2E777
:1029C000009C0298C34649460194022864D003281B
:1029D00000D1ABE2012800D038E2019A0024024085
:1029E0000025A14660E0434623434AD040460028E4
:1029F00000D1C0E101F064FA031E272B00DDB3E132
:102A000028210D1A211C083B4246E9409A400D1C22
:102A10001543221C9A40A8469146374B00251B1AA5
:102A20009A46002402959EE75A4616430320002E3C
:102A3000B1D1B34600210220ADE75A4632431BD044
:102A40005B46002B00D18AE1584601F039FA27286D
:102A500000DD7DE12822171A011C321C08395B4673
:102A6000FA408B40171C1F43331C8B40BB46191C7C
:102A7000214B1B1A00208EE70027BB4600210120B6
:102A800089E70020012504248046814602956AE7F3
:102A900003250C24029566E7019C0394039D012203
:102AA0002A400024114DA146002000212403260BBA
:102AB0000C0D2405114B34432D0523402B435B00A3
:102AC0005B08D207191C4846114307B03CBC90462E
:102AD0009946A246AB46F0BD0022802424039146CD
:102AE000024DE1E700240025A146DDE7FF070000D5
:102AF00001FCFFFFD84000080DFCFFFFFFFF0F8027
:102B00005546ED1A0495D84500D953E100D14EE160
:102B1000049C0025013C4E4604944746A94658466D
:102B200003020C0E1C430902250C23041B0C00910C
:102B3000381C291C0193FFF7DFFA019983464143B2
:102B4000381C8A46291CFFF71BFB330C0904194368
:102B50008A450CD95B460919013B8C4200D947E1F3
:102B60008A4500D844E1022252429344091953464F
:102B7000CB1A181C291C9846FFF7BEFA071C0198AF
:102B8000291C784382464046FFF7FAFA36040B04C4
:102B9000360C33439A4509D91B197A1E9C4200D939
:102BA00024E19A4500D821E1023F1B195E46320418
:102BB0001743380CBB46009E009F51463F0C320421
:102BC0005B1A5946BA46120C0F043F0C9046514608
:102BD0007A434F434146414356467043CF19160C42
:102BE000BE19B14202D980277F02C019310C1204EC
:102BF0003604120C4018B618834200D2C4E000D14B
:102C0000BEE0191A4846861BB145BF417F42CF1B23
:102C1000A74200D113E1291C381CFFF76DFA019976
:102C200002904143381C8946291CFFF7A9FA330C4E
:102C30000904194389450CD9029B0919013B8C42AF
:102C400000D9FFE0894500D8FCE0029F0919023F46
:102C500002974F46CF1B381C291C0597FFF74CFAEB
:102C6000071C0198291C784381460598FFF788FACC
:102C700036040904360C0E43B14509D936197B1EBA
:102C8000B44200D9E0E0B14500D8DDE0023F36199A
:102C9000029D4946761A290439430B0457460A0C0B
:102CA0001B0C40464546584355437B437A43EB183B
:102CB000070CDB199D4202D980256D0252191D0CAB
:102CC00000041B04000C52191B18964235D300D186
:102CD000FCE001231943049E994FF519002D00DCF7
:102CE000A1E0480709D00F230B40042B05D00B1D92
:102CF0008B42894149428B44191C5A46D20107D55F
:102D0000904B5C46049E80271C40FF00A346F519AB
:102D10008D4B9D427ADD039C0122224000248B4D85
:102D2000A146C1E680242403474627424CD13C43B8
:102D30002403240B009A854DB6E63619481EB4428A
:102D40005ED9011C9642C4D1009E9E42C1D1C2E709
:102D5000031C283B311C99408B46002188E6301C1F
:102D600001F0AEF8203072E6283B211C9940002289
:102D70008846914651E6201C01F0A2F820303BE63F
:102D80000021B14500D33DE7009F5A46B944B945FB
:102D9000BF417F423F19FB18013A9C421ED2984224
:102DA00000D97EE000D1B5E0191A93462AE789459B
:102DB00000D8ADE64846464642467708D30746085F
:102DC000C0071E438146AAE65846204212D104435A
:102DD00024032A1C240B89465C4D65E6A342E3D1FB
:102DE000009F4F45DBD9211A93460BE7171CDDE600
:102DF0009B46BCE63C432403240B009A534D53E608
:102E0000B24259D800D18AE0011C62E75F46C90886
:102E10007B07039E0B437C026D0501229946240B20
:102E20006D0D324040E64A4B049FDB1B382B10DD12
:102E3000039C0122224000240025A14634E6012102
:102E4000494248E7029304E71F1C21E7019C0394D1
:102E500041E71F2B40DC3F48049F0C1C3A185846A2
:102E60009140DC40904020430A1C511E8A41011CC5
:102E700011435A46DA40131C480709D00F220A4072
:102E8000042A05D00A1D8A42894149425B18111C57
:102E90001A0234D5039C0122224000240125A146B8
:102EA00002E6009F02214942B9448B44B945894159
:102EB00049420919CB18A4E6009D881E6900A94261
:102EC000AD416D422C19361900913AE7002B00D024
:102ED00033E70024009437E71F4A049C5D46121B29
:102EE000D5402A1C202B1FD01C4E5F46A3199F40A3
:102EF0003B1C19434B1E994111430023BCE75A0761
:102F0000C9080A43039F91465B0201221C0B3A4009
:102F10000025C9E54E45C4D89346002172E6009FBE
:102F20009F42C9D3011C0FE70023E2E7802424035A
:102F30005F463C432403240B019A8946034DB3E5C5
:102F4000FF030000FFFFFFFEFE070000FF07000079
:102F500002FCFFFF1E040000E2FBFFFF3E04000036
:102F6000F0B55F4656464D464446F0B40D1C041C71
:102F70008046E80F814618030F03000B3F0B83B018
:102F800084461B48009749005E00DF0F490D9246BA
:102F9000760DBB4681420CD01548864210D00120E8
:102FA000B14215D003B03CBC90469946A246AB4610
:102FB000F0BD009F01202743F4D10D488642EED199
:102FC000604602430120002AECD10120B142E9D140
:102FD000009B6345E6D1D045E4D1D94506D0002910
:102FE000E0D11C43201C441EA041DBE70020D9E7B0
:102FF000FF070000F0B55F4656464D464446F0B424
:10300000CD0FDE0FAC461D032D0BB146374E0F031F
:103010004C00AB465D0080463F0B640D92466D0D43
:10302000B44232D0314EB54235D0002C0ED13843A7
:1030300041424141081C002D0BD0002919D1CC453B
:103040002DD0654668420123184318E0002DF6D1C3
:10305000281C59460A4353425341002806D1002BED
:10306000EDD0634658420123184308E00020002BAE
:1030700005D14A46504250414042012318433CBCCE
:1030800090469946A246AB46F0BD3E1C0643C9D0C9
:1030900002204042F3E75E461643C6D0F8E7AC4252
:1030A00007DC0BDA6146484248414042012318439D
:1030B000E5E76646704201231843E0E75F450AD81A
:1030C0000ED000205F45DAD2654668426841404232
:1030D00001231843D3E76246504201231843CEE749
:1030E000D045F8D80020D045EED3C8E7FF07000050
:1030F000F0B556464D4644465F46F0B40D1C83B0CD
:10310000041C0190E80F814618030F03000B3F0BCE
:1031100084463548009749005E00DF0F490D92460E
:10312000760DB846814234D02F48864236D00029E9
:1031300018D0002E1FD1341C67463A4353425341E6
:10314000002C1FD00020002B05D142465042504198
:1031500040420123184303B03CBC90469946A24626
:10316000AB46F0BD0098044360426041041C002E51
:10317000E2D00028E9D1C14515D04F46784201235D
:103180001843E8E7002BF6D04B465842012318437A
:10319000E1E7009F02202743DDD1C5E76746022013
:1031A0001743D8D1C3E7B14204DD4A465042012358
:1031B0001843D0E7B14207DB00986045E4D80AD055
:1031C000009F00206745C6D24F4678427841404272
:1031D00001231843BFE7019A5245D5D8019A002030
:1031E0005245F1D3B7E7C046FF070000F0B5564699
:1031F00044465F464D46F0B41F1C0B031B0B9A461A
:103200004B0087B0041C80465B0DC80F161C029350
:103210008146002B68D0694B0299994232D08022B6
:10322000534652031A43D200630F1A439246644A2C
:10323000E000891880460291002400253B031B0B07
:103240009B467800FB0F321C400D039300D175E0C4
:103250005A4B984269D08022594652030A43730F51
:10326000D2001A43564B9346C018F200002303992C
:103270004E4671401C430F2C00D9A9E0514EA400CA
:103280003459A74653461C4300D087E00025AA4680
:10329000A84608240225D1E74946022D6CD0032D0B
:1032A00000D117E2012D00D058E10D40EDB200240D
:1032B000A9460023A0460020002125030A0D1C0575
:1032C0002D0B1205404B2A43134023435B004C4611
:1032D0005B08E207191C4046114307B03CBC90460E
:1032E0009946A246AB46F0BD5346234350D05346C1
:1032F000002B00D184E1504600F0E2FD031E272B95
:1033000000DD76E128210D1A211C083B5246E940D8
:103310009A400D1C1543221C9A40AA4690462B4BFE
:1033200000241B1A0293002588E75B461E430323F3
:10333000002E9CD1B3460022022398E75B4633431C
:1033400021D05846002800D14EE100F0B9FD2728D1
:1033500000DD42E128210F1A021C311C083A5B46AD
:10336000F94093400F1C1F43331C9340BB461A1C6B
:10337000164B181A00237AE701230B4000249946C4
:10338000A0460E4B97E70027BB46002201236EE7BD
:10339000002104248A46884601254FE70C24032592
:1033A0004CE700258024A9462403A846034B82E766
:1033B000DA46904603991D1C6FE7C046FF070000E0
:1033C00001FCFFFF18410008FFFF0F800DFCFFFF0D
:1033D000029F160C381804904046070C0004000C9D
:1033E0001204120C031C5343041C3D1C744355432C
:1033F00098463B1C73436419A44644460293230C2D
:1034000063449D4204D9029D802464022D190295D3
:103410001D0C039545462C041B04240C1C19059413
:103420005C46230C051C58432404240C8446381C99
:10343000604365435F438146CC44280C6044BB46EF
:10344000814502D980277F02BB442D04070C2D0C37
:10345000000440195546BC462F04E3448446280C1A
:103460003D0C2F1C5743B8462F1C77434243B946A7
:1034700047463F0C9144BA46D14446434A4502D997
:1034800080225202B6184F463A0CB6183A04474604
:103490003F043F0CB8462F1C67435D4344435843E9
:1034A00065190190380C2D184244B846AC4204D935
:1034B000019880235B02C0180190039C029F201C8E
:1034C0006044C0196045A44147466442A4462B04A9
:1034D0003C049946240C4C44A046D8448018C2466B
:1034E000E24490429241574652429146F219E245D7
:1034F000BF417F424B46BC46D845BF41D4187F42AE
:1035000063461F432D0C7F19B24292414C45AD4199
:1035100052426D421543019E7D19AB19E20D5B02CB
:10352000059F134342023A439A46531E9A41C30DE4
:10353000101C18436402204380465046C0010DD53C
:10354000454601225646049C6B082A401A43F3075D
:1035500001341A43760804949046B246049E634FA1
:10356000F319002B61DD404640070BD00F22444683
:103570002240042A06D0424604324245804140425D
:10358000824490465546ED0107D5594B5646049F57
:1035900080201E40C000B2463B18564A934200DDD0
:1035A000EAE644465546E2086807104301226C02E9
:1035B0005B050A408046240B5B0D91467BE6DA46AC
:1035C00090461D1C69E680242403574627421CD1DF
:1035D0003C432403240B484B6DE6031C283B311C61
:1035E00099408B460022C3E6301C00F069FC203075
:1035F000ADE6283B211C994000228A4690468EE683
:10360000201C00F05DFC203078E65846204207D1AF
:10361000044303992403240B89469046364B4AE61B
:103620003C432403240B344B45E6344B049E9B1B44
:10363000382B06DD01230B4000249946A0460023C9
:1036400039E61F2B25DC049C2D4D46466019524659
:1036500044468640DC4082405746301C2243DF40CF
:10366000441EA04102433B1C540709D00F201040C8
:10367000042805D0101D9042924152429B18021C12
:103680001D021AD501230B4000249946A0460123B0
:1036900011E61C48049C5546001BC540281C202BE5
:1036A00016D0194E5746A21997403A1C43461A4362
:1036B000531E9A4102430023D6E758075B02D20803
:1036C0001C0B01230B401043994680460023F2E572
:1036D0000022EBE7802424035046012304431940D1
:1036E0002403240B8946044BE5E5C046FF03000094
:1036F000FFFFFFFEFE070000FF07000002FCFFFFC8
:103700001E040000E2FBFFFF3E040000F8B55F4628
:10371000564644464D46F0B40C034D00CF0F610AA7
:10372000440F2143C4001803DE0F8046B4464646CA
:103730005800760A530F3343D600D14A6D0DBA466E
:10374000400DB346904200D1F5E06246012672403A
:103750009446674500D1ABE02F1A002F00DC11E141
:1037600000283ED15846184300D0F1E0600700D150
:1037700097E00F232340042B00D122E1221DA24217
:10378000A4416442802309191B04012750460B40C1
:103790000740141C002B00D179E0B94B01359D4244
:1037A00000D10BE1B74BE408194048074902044334
:1037B0000B0B002000211B031A0B0B0D6D051B05C5
:1037C00013436A08B04DFF071D4015436D006D0897
:1037D000291C3943201C3CBC90469946A246AB4666
:1037E000F8BDA7488542C1D0802000040343382F8C
:1037F00000DDFDE01F2F00DD31E12020C01B1A1C81
:103800005E468240FE40324394465A468240101C37
:10381000421E9041FB40624602431F1CA21A944282
:10382000A4416442C91B091B141C0A029ED549020B
:103830004F0A002F00D1D6E0381C00F041FB021CDB
:10384000083A1F2A00DDC3E02821231C091A9740EB
:10385000CB401F439440954200DDC0E0551B691CDE
:103860001F2900DDEAE01F22551B3B1C221CAB4038
:10387000CA40AC40651EAC411343CF401C43391CC9
:10388000002573E780217E4D0027C90300247C4B6F
:103890004807E4080443C9089D4250D009030B0BB4
:1038A00087E780231B04012752460B40174071E72E
:1038B0002A1A9446002A00DCA1E0002854D070485F
:1038C000854200D152E78020000403436046382837
:1038D00000DD0EE11F2800DD57E162462020801A3E
:1038E0001E1C8640B1465E46D6404A4632435E467E
:1038F00086409046301C421E90414246024360463C
:10390000C3401219A242A441644259180919141C57
:10391000080200D42AE75A4B01359D4200D131E11B
:10392000584B60081940012323401C1C0443CB075B
:103930001C4349081AE71E4300D00AE705E7231C89
:103940000B433BD080231B030B431B031B0B30E7B4
:10395000013F002F6DD15E46A21B9442A4416442F8
:10396000C91A091B141C60E75846184300D1FDE62C
:1039700001267642B4446046002800D0D0E05E467E
:103980003219BFE7002F00D080E0681C4005400DD1
:10399000012800DCE8E05A46A21A9442BF41C81A46
:1039A0007F42C71B3E0200D498E05846041BA34543
:1039B0009241591A52428F1AE2463AE700230024F4
:1039C000F7E680231B04012756460B403740E1E60B
:1039D000271C283887400024954200DC3EE729490F
:1039E000AD1A3940C2E6201C00F06AFA203026E702
:1039F0005A461A43531E9A41D2B200270EE7002AB4
:103A000000D0DEE0681C4605760D012E00DC90E05B
:103A10001B4DA84200D1F5E05E463219A242A441F6
:103A2000644259180919CC07520814434908051C67
:103A30009CE61348854200D0D9E697E62B1C1F3B35
:103A40003E1CDE40331C20296FD03F22551BAF4067
:103A50003C43601E84411C430021002586E6381C3F
:103A600020381E1CC640301C202F60D04022D71B9F
:103A7000BB405A461A43531E9A4102430027CDE6E3
:103A8000FF070000FFFF7FFFFFFF0F80002D37D0F3
:103A9000B64DA84200D18FE080252D047F422943F6
:103AA000382F00DDA8E01F2F00DD24E12025ED1BCD
:103AB0000E1CAE40B046261CFE404246AC401643AB
:103AC000651EAC413443F9405A46141BA34592414C
:103AD0005B1A5242991A051CE246A6E6131C3B43A8
:103AE000141C002B00D0A4E6002700210025002490
:103AF000CDE65A461A43531E9A41D2B2002300E73C
:103B00000D1C254358D0FF43002F51D15A46141B9A
:103B1000A3459241591A5242891A051CE24684E68D
:103B20009248854200D0D1E620E6002790E70023A6
:103B30009FE7081C2043002D00D0C2E0002800D1E0
:103B4000EFE05846184300D110E658460219A24249
:103B5000A441644259180919141C0A0200D405E64C
:103B6000834B0125194001E6081C2043002D38D164
:103B700000286FD15946194303D0191C5C46E24610
:103B8000F4E500270021002481E6604620381A1C55
:103B9000C2406646101C202E00D1AAE04022921B93
:103BA00093405A461A43531E9A4102430023A8E603
:103BB0006E4DA84200D073E7191C5C46051CE24616
:103BC000D4E5002D22D10D1C254376D0D543002D00
:103BD00070D15C445C459241591852428918051CC9
:103BE00096E600284CD15946194300D14AE6191CE3
:103BF0005C46E2465D4DB9E50C43611E8C41E4B282
:103C0000002161E7051C0021002440E6574DA84231
:103C100053D05542802216043143382D7BDC1F2DB2
:103C200000DD8CE02022561B0A1CB446B240261C44
:103C3000EE403243904662469440661EB44142468E
:103C40001443E9405C445C459241CB1852429918B8
:103C5000051C5DE65846184300D187E55E46A71B64
:103C6000BC429241C81A5242801A060260D5584698
:103C7000041BA3459241591A5242891AE24675E53E
:103C80005846184333D04807E40804438020C90845
:103C90000003014208D0DD08054205D15946CA0893
:103CA0005C071443291CE246630FC9001943E40072
:103CB0002E4D5BE52D4A9042AFD1191C5C46051C88
:103CC00054E5002830D05846184310D080254807C6
:103CD000E408C9082D0304432942E5D0D808284246
:103CE000E2D15D46EA085C071443011CDCE71F4D86
:103CF0003CE5002355E73D1C203D0E1CEE40351CE5
:103D0000202F2ED04026F71BB9400C43611E8C415A
:103D10002C430021D8E60C43611E8C41E4B2002103
:103D200090E7191C5C4621E5191C5C460F4D1DE50A
:103D3000031C3B4300D124E7011C3C1C16E5202654
:103D4000764276190A1CF2409046202D0BD0402670
:103D5000751BA9400C43611E8C4145462C43002134
:103D600070E70021D1E70021F4E7C046FF0700001B
:103D7000FFFF7FFF70B50B1C124C09030E0B59009F
:103D8000021C490DDD0F0020A14211DD0E488142C9
:103D90000FDC8020400306430C48401A1F280BDD2F
:103DA0000B4A521AD640321C5042002D00D1101C32
:103DB00070BD084BE818FBE7074BC240C9188E409E
:103DC0003243F1E7FE0300001D040000330400004D
:103DD00013040000FFFFFF7FEDFBFFFFF8B5041E9B
:103DE00031D0C70F00D04442201C00F069F8184DB4
:103DF0002D1A0A2819DD0B38844024036D05240B85
:103E00006D0D3A1C0026002000210B0D2403240B0D
:103E10001B0523430F4C2D051C402C4364006408F4
:103E2000D307211C301C1943F8BD061C1536231C72
:103E3000B3401E1C0B23181AC44024036D05240B29
:103E40006D0D3A1CDFE70022002500240026DAE78A
:103E50001E040000FFFF0F8010B5041E28D000F0E4
:103E60002FF8154A121A0A2815DD0B38844024034E
:103E70005205240B520D0023002000212403181C9E
:103E80000B0D240B1B0523430C4C12051C40144343
:103E90006400610810BD031C1533211C99400B1CE4
:103EA0000B21081AC44024035205240B520DE3E7EA
:103EB000002200240023DFE71E040000FFFF0F8024
:103EC0001C2101231B04984201D3000C10391B0A4A
:103ED000984201D3000A08391B09984201D300090E
:103EE000043902A2105C40187047C0460403020265
:103EF000010101010000000000000000FB21F93F6A
:103F0000FB2109407CD91240FB2119407A6A1F40ED
:103F10007CD92240BBFD2540FB2129403A462C405C
:103F20007A6A2F405C4731407CD932409C6B3440E8
:103F3000BBFD3540DB8F3740FB2139401BB43A4095
:103F40003A463C405AD83D407A6A3F404C7E404019
:103F50005C4741406C1042407CD942408CA24340B7
:103F60009C6B4440AC344540BBFD4540CBC646400D
:103F7000DB8F4740EB584840FB21494083F9A200C2
:103F8000444E6E00FC291500D1572700DD34F500A2
:103F900062DBC0003C999500419043006351FE00F4
:103FA000BBDEAB00B761C5003A6E2400D24D4200C3
:103FB0004906E00009EA2E001C92D100EB1DFE002C
:103FC00029B11C00E83EA700F535820044BB2E0055
:103FD0009CE98400B4267000417E5F00D6913900D0
:103FE000538339009CF439008B5F840028F9BD00AD
:103FF000F81F3B00DEFF97000F980500112FEF0020
:104000000A5A8B006D1F6D00CF7E360009CB27004A
:10401000464FB7009E663F002DEA5F00BA27750045
:10402000E5EBC7003D7BF100F739070092528A00AB
:10403000FB6BEA001FB15F00085D8D003003560086
:104040007BFC4600F0AB6B0020BCCF0036F49A003E
:10405000E3A91D005E619100081BE60085996500DB
:10406000A0145F008D40680080D8FF0027734D00CA
:1040700006063100CA561500C9A873007BE260002D
:104080006B8CC00002000000030000000400000070
:10409000060000000000000000000040FB21F93F86
:1040A000000000002D44743E000000809846F83C5B
:1040B0000000006051CC783B00000080831BF03989
:1040C0000000004020257A38000000802282E3367C
:1040D000000000001DF36935002B00089C2A000831
:1040E000E42A0008CA290008E42A0008D82A00089F
:1040F000E42A0008CA2900089C2A00089C2A000813
:10410000D82A0008CA290008C0290008C0290008C8
:10411000C0290008242D0008D0330008BE3500084F
:10412000BE350008B03300089A3200089A32000801
:10413000A2330008B03300089A320008A233000806
:104140009A320008B033000898320008983200080C
:0841500098320008C635000892
:104158000000000001020304010203040607080925
:0400000508000000EF
:00000001FF
